8=FIX.4.2|9=66|35=A|34=1|49=BUY42|52=20230113-10:46:01.667|56=SELL42|98=0|108=30|10=231|8=FIX.4.2|9=54|35=5|34=2|49=BUY42|52=20230113-10:46:03.220|56=SELL42|10=179|8=FIX.4.2|9=66|35=A|34=3|49=BUY42|52=20230113-10:46:03.720|56=SELL42|98=0|108=30|10=225|8=FIX.4.2|9=130|35=D|34=4|49=BUY42|52=20230113-10:46:32.156|56=SELL42|11=1673606792069|21=1|38=500|40=1|54=1|55=IBM|59=0|60=20230113-10:46:32.147|10=041|8=FIX.4.2|9=54|35=0|34=5|49=BUY42|52=20230113-10:47:02.730|56=SELL42|10=183|8=FIX.4.2|9=66|35=A|34=6|49=BUY42|52=20230113-10:47:07.713|56=SELL42|98=0|108=30|10=235|8=FIX.4.2|9=66|35=A|34=7|49=BUY42|52=20230113-10:47:27.852|56=SELL42|98=0|108=30|10=242|8=FIX.4.2|9=66|35=A|34=8|49=BUY42|52=20230113-10:48:21.886|56=SELL42|98=0|108=30|10=245|8=FIX.4.2|9=66|35=A|34=9|49=BUY42|52=20230113-10:48:53.682|56=SELL42|98=0|108=30|10=245|8=FIX.4.2|9=55|35=5|34=10|49=BUY42|52=20230113-10:48:55.077|56=SELL42|10=246|8=FIX.4.2|9=67|35=A|34=11|49=BUY42|52=20230113-10:48:58.695|56=SELL42|98=0|108=30|10=040|8=FIX.4.2|9=131|35=D|34=12|49=BUY42|52=20230113-10:49:25.658|56=SELL42|11=1673606965636|21=1|38=560|40=1|54=1|55=IBM|59=0|60=20230113-10:49:25.655|10=118|8=FIX.4.2|9=55|35=0|34=13|49=BUY42|52=20230113-10:49:55.692|56=SELL42|10=248|8=FIX.4.2|9=55|35=0|34=14|49=BUY42|52=20230113-10:50:26.691|56=SELL42|10=238|8=FIX.4.2|9=55|35=0|34=15|49=BUY42|52=20230113-10:50:57.685|56=SELL42|10=246|8=FIX.4.2|9=55|35=0|34=16|49=BUY42|52=20230113-10:51:28.690|56=SELL42|10=242|8=FIX.4.2|9=55|35=0|34=17|49=BUY42|52=20230113-10:51:59.690|56=SELL42|10=247|8=FIX.4.2|9=55|35=0|34=18|49=BUY42|52=20230113-10:52:29.694|56=SELL42|10=250|8=FIX.4.2|9=55|35=0|34=19|49=BUY42|52=20230113-10:53:00.552|56=SELL42|10=234|8=FIX.4.2|9=55|35=0|34=20|49=BUY42|52=20230113-10:53:30.618|56=SELL42|10=232|8=FIX.4.2|9=55|35=0|34=21|49=BUY42|52=20230113-10:54:00.621|56=SELL42|10=225|8=FIX.4.2|9=55|35=0|34=22|49=BUY42|52=20230113-10:54:30.695|56=SELL42|10=240|